{
  "_format": "hh-sol-artifact-1",
  "contractName": "ERC721AuctionMarketplace",
  "sourceName": "contracts/ERC721Marketplace/ERC721AuctionMarketplace.sol",
  "abi": [
    {
      "inputs": [
        {
          "internalType": "address payable",
          "name": "_feeDestination",
          "type": "address"
        }
      ],
      "stateMutability": "nonpayable",
      "type": "constructor"
    },
    {
      "anonymous": false,
      "inputs": [
        {
          "indexed": false,
          "internalType": "bytes32",
          "name": "id",
          "type": "bytes32"
        }
      ],
      "name": "AuctionBidPlaced",
      "type": "event"
    },
    {
      "anonymous": false,
      "inputs": [
        {
          "indexed": false,
          "internalType": "bytes32",
          "name": "id",
          "type": "bytes32"
        }
      ],
      "name": "AuctionClaimed",
      "type": "event"
    },
    {
      "anonymous": false,
      "inputs": [
        {
          "indexed": false,
          "internalType": "bytes32",
          "name": "id",
          "type": "bytes32"
        }
      ],
      "name": "AuctionCreated",
      "type": "event"
    },
    {
      "anonymous": false,
      "inputs": [
        {
          "indexed": true,
          "internalType": "address",
          "name": "previousOwner",
          "type": "address"
        },
        {
          "indexed": true,
          "internalType": "address",
          "name": "newOwner",
          "type": "address"
        }
      ],
      "name": "OwnershipTransferred",
      "type": "event"
    },
    {
      "inputs": [
        {
          "internalType": "address",
          "name": "_contractAddress",
          "type": "address"
        }
      ],
      "name": "addApprovedContract",
      "outputs": [],
      "stateMutability": "nonpayable",
      "type": "function"
    },
    {
      "inputs": [
        {
          "internalType": "address",
          "name": "",
          "type": "address"
        }
      ],
      "name": "approvedContracts",
      "outputs": [
        {
          "internalType": "bool",
          "name": "",
          "type": "bool"
        }
      ],
      "stateMutability": "view",
      "type": "function"
    },
    {
      "inputs": [
        {
          "internalType": "bytes32",
          "name": "",
          "type": "bytes32"
        }
      ],
      "name": "auctions",
      "outputs": [
        {
          "internalType": "address",
          "name": "tokenAddress",
          "type": "address"
        },
        {
          "internalType": "uint256",
          "name": "tokenId",
          "type": "uint256"
        },
        {
          "internalType": "address",
          "name": "owner",
          "type": "address"
        },
        {
          "internalType": "uint128",
          "name": "bid",
          "type": "uint128"
        },
        {
          "internalType": "address",
          "name": "bidder",
          "type": "address"
        },
        {
          "internalType": "uint128",
          "name": "endsAt",
          "type": "uint128"
        }
      ],
      "stateMutability": "view",
      "type": "function"
    },
    {
      "inputs": [
        {
          "internalType": "bytes32",
          "name": "_id",
          "type": "bytes32"
        }
      ],
      "name": "bidOnAuction",
      "outputs": [],
      "stateMutability": "payable",
      "type": "function"
    },
    {
      "inputs": [
        {
          "internalType": "uint16",
          "name": "_fee",
          "type": "uint16"
        }
      ],
      "name": "changeFee",
      "outputs": [],
      "stateMutability": "nonpayable",
      "type": "function"
    },
    {
      "inputs": [
        {
          "internalType": "address payable",
          "name": "_feeDestination",
          "type": "address"
        }
      ],
      "name": "changeFeeDestination",
      "outputs": [],
      "stateMutability": "nonpayable",
      "type": "function"
    },
    {
      "inputs": [
        {
          "internalType": "bytes32",
          "name": "_id",
          "type": "bytes32"
        }
      ],
      "name": "claimAuction",
      "outputs": [],
      "stateMutability": "nonpayable",
      "type": "function"
    },
    {
      "inputs": [
        {
          "internalType": "address",
          "name": "_tokenAddress",
          "type": "address"
        },
        {
          "internalType": "uint256",
          "name": "_tokenId",
          "type": "uint256"
        },
        {
          "internalType": "uint128",
          "name": "_endsAt",
          "type": "uint128"
        }
      ],
      "name": "createAuction",
      "outputs": [
        {
          "internalType": "bytes32",
          "name": "",
          "type": "bytes32"
        }
      ],
      "stateMutability": "nonpayable",
      "type": "function"
    },
    {
      "inputs": [],
      "name": "fee",
      "outputs": [
        {
          "internalType": "uint16",
          "name": "",
          "type": "uint16"
        }
      ],
      "stateMutability": "view",
      "type": "function"
    },
    {
      "inputs": [],
      "name": "feeDestination",
      "outputs": [
        {
          "internalType": "address payable",
          "name": "",
          "type": "address"
        }
      ],
      "stateMutability": "view",
      "type": "function"
    },
    {
      "inputs": [
        {
          "internalType": "address",
          "name": "",
          "type": "address"
        },
        {
          "internalType": "address",
          "name": "",
          "type": "address"
        },
        {
          "internalType": "uint256",
          "name": "",
          "type": "uint256"
        },
        {
          "internalType": "bytes",
          "name": "",
          "type": "bytes"
        }
      ],
      "name": "onERC721Received",
      "outputs": [
        {
          "internalType": "bytes4",
          "name": "",
          "type": "bytes4"
        }
      ],
      "stateMutability": "nonpayable",
      "type": "function"
    },
    {
      "inputs": [],
      "name": "owner",
      "outputs": [
        {
          "internalType": "address",
          "name": "",
          "type": "address"
        }
      ],
      "stateMutability": "view",
      "type": "function"
    },
    {
      "inputs": [],
      "name": "renounceOwnership",
      "outputs": [],
      "stateMutability": "nonpayable",
      "type": "function"
    },
    {
      "inputs": [
        {
          "internalType": "address",
          "name": "newOwner",
          "type": "address"
        }
      ],
      "name": "transferOwnership",
      "outputs": [],
      "stateMutability": "nonpayable",
      "type": "function"
    }
  ],
  "bytecode": "0x60806040526003805461ffff60a01b1916607d60a21b17905534801561002457600080fd5b506040516115a33803806115a3833981016040819052610043916100c1565b61004c33610071565b600380546001600160a01b0319166001600160a01b03929092169190911790556100f1565b600080546001600160a01b038381166001600160a01b0319831681178455604051919092169283917f8be0079c531659141344cd1fd0a4f28419497f9722a3daafe3b4186f6b6457e09190a35050565b6000602082840312156100d357600080fd5b81516001600160a01b03811681146100ea57600080fd5b9392505050565b6114a3806101006000396000f3fe6080604052600436106100dd5760003560e01c8063715018a61161007f578063d430280511610059578063d430280514610318578063ddca3f431461032b578063de53fcd514610360578063f2fde38b1461038057600080fd5b8063715018a6146102b15780638da5cb5b146102c6578063b7747267146102f857600080fd5b80631edbc5be116100bb5780631edbc5be1461016d57806326749ad7146102235780633407facd1461026357806367e24df11461028357600080fd5b8063135171be146100e2578063150b7a02146101045780631e18cb891461014d575b600080fd5b3480156100ee57600080fd5b506101026100fd366004611155565b6103a0565b005b34801561011057600080fd5b5061012f61011f36600461118f565b630a85bd0160e11b949350505050565b6040516001600160e01b031990911681526020015b60405180910390f35b34801561015957600080fd5b50610102610168366004611155565b6103fa565b34801561017957600080fd5b506101d761018836600461126f565b60026020819052600091825260409091208054600182015492820154600383015460048401546005909401546001600160a01b039384169594928416936001600160801b039283169316911686565b604080516001600160a01b0397881681526020810196909652938616938501939093526001600160801b03918216606085015290931660808301529190911660a082015260c001610144565b34801561022f57600080fd5b5061025361023e366004611155565b60016020526000908152604090205460ff1681565b6040519015158152602001610144565b34801561026f57600080fd5b5061010261027e366004611288565b610446565b34801561028f57600080fd5b506102a361029e3660046112ac565b6104db565b604051908152602001610144565b3480156102bd57600080fd5b50610102610719565b3480156102d257600080fd5b506000546001600160a01b03165b6040516001600160a01b039091168152602001610144565b34801561030457600080fd5b5061010261031336600461126f565b61074f565b61010261032636600461126f565b610d11565b34801561033757600080fd5b5060035461034d90600160a01b900461ffff1681565b60405161ffff9091168152602001610144565b34801561036c57600080fd5b506003546102e0906001600160a01b031681565b34801561038c57600080fd5b5061010261039b366004611155565b610f14565b6000546001600160a01b031633146103d35760405162461bcd60e51b81526004016103ca906112fa565b60405180910390fd5b6001600160a01b03166000908152600160208190526040909120805460ff19169091179055565b6000546001600160a01b031633146104245760405162461bcd60e51b81526004016103ca906112fa565b600380546001600160a01b0319166001600160a01b0392909216919091179055565b6000546001600160a01b031633146104705760405162461bcd60e51b81526004016103ca906112fa565b6102ee8161ffff1611156104b95760405162461bcd60e51b815260206004820152601060248201526f746f6f20626967206f6620612066656560801b60448201526064016103ca565b6003805461ffff909216600160a01b0261ffff60a01b19909216919091179055565b6000333b15806104fa57503360009081526001602052604090205460ff165b6105465760405162461bcd60e51b815260206004820152601e60248201527f6f6e6c79206e6f6e20636f6e747261637473206f7220617070726f766564000060448201526064016103ca565b6040516bffffffffffffffffffffffff19606086811b821660208401526034830186905232901b1660548201526001600160801b0319608084901b16606882015242607882015260009060980160408051808303601f19018152908290528051602090910120632142170760e11b82523260048301523060248301526044820186905291506001600160a01b038616906342842e0e90606401600060405180830381600087803b1580156105f957600080fd5b505af115801561060d573d6000803e3d6000fd5b50506040805160c0810182526001600160a01b03808a16825260208083018a815232848601908152600060608601818152608087018281526001600160801b038e811660a08a019081528d8552600297889052938a9020985189549089166001600160a01b0319918216178a55955160018a01559351958801805496881696861696909617909555516003870180549184166001600160801b03199283161790559351600487018054919096169316929092179093555160059093018054939092169216919091179055517f2a66b5a320edcb6b7fba849fd4173d545603571b82a650ae5ef95f12e0dada9e9250610709915083815260200190565b60405180910390a1949350505050565b6000546001600160a01b031633146107435760405162461bcd60e51b81526004016103ca906112fa565b61074d6000610faf565b565b6000818152600260205260409020600501548190426001600160801b0390911610801561079257506000818152600260205260409020546001600160a01b031615155b6107d25760405162461bcd60e51b8152602060048201526011602482015270185d58dd1a5bdb881b9bdd08195b991959607a1b60448201526064016103ca565b6000600260008481526020019081526020016000206040518060c00160405290816000820160009054906101000a90046001600160a01b03166001600160a01b03166001600160a01b03168152602001600182015481526020016002820160009054906101000a90046001600160a01b03166001600160a01b03166001600160a01b031681526020016003820160009054906101000a90046001600160801b03166001600160801b03166001600160801b031681526020016004820160009054906101000a90046001600160a01b03166001600160a01b03166001600160a01b031681526020016005820160009054906101000a90046001600160801b03166001600160801b03166001600160801b031681525050905060026000848152602001908152602001600020600080820160006101000a8154906001600160a01b03021916905560018201600090556002820160006101000a8154906001600160a01b0302191690556003820160006101000a8154906001600160801b0302191690556004820160006101000a8154906001600160a01b0302191690556005820160006101000a8154906001600160801b030219169055505060008082600001516001600160a01b0316632a55205a846020015185606001516040518363ffffffff1660e01b81526004016109d89291909182526001600160801b0316602082015260400190565b604080518083038186803b1580156109ef57600080fd5b505afa158015610a03573d6000803e3d6000fd5b505050506040513d601f19601f82011682018060405250810190610a27919061132f565b90925090508015610a6a576040516001600160a01b0383169082156108fc029083906000818181858888f19350505050158015610a68573d6000803e3d6000fd5b505b8251610a86906001600160a01b031663152a902d60e11b610fff565b15610b245782516020840151606085015160405163152a902d60e11b815260048101929092526001600160801b031660248201526001600160a01b0390911690632a55205a90604401604080518083038186803b158015610ae657600080fd5b505afa158015610afa573d6000803e3d6000fd5b505050506040513d601f19601f82011682018060405250810190610b1e919061132f565b90925090505b600354600160a01b900461ffff1615610ba85760035460608401516001600160a01b038216916108fc9161271091610b6891600160a01b90910461ffff1690611373565b610b7291906113a2565b6001600160801b03169081150290604051600060405180830381858888f19350505050158015610ba6573d6000803e3d6000fd5b505b82604001516001600160a01b03166108fc82612710600360149054906101000a900461ffff16612710610bdb91906113d6565b61ffff168760600151610bee9190611373565b610bf891906113a2565b6001600160801b0316610c0b91906113f9565b6040518115909202916000818181858888f19350505050158015610c33573d6000803e3d6000fd5b5060808301516001600160a01b031615801590610c5c575060808301516001600160a01b03163b155b15610cd757825160808401516020850151604051632142170760e11b81523060048201526001600160a01b03928316602482015260448101919091529116906342842e0e90606401600060405180830381600087803b158015610cbe57600080fd5b505af1158015610cd2573d6000803e3d6000fd5b505050505b6040518581527fdd636676cbde606c0bf9ba33bcb630724c73f8710733e9a20567a4caa991b0349060200160405180910390a15050505050565b6000818152600260205260409020600501548190426001600160801b039091161015610d6f5760405162461bcd60e51b815260206004820152600d60248201526c185d58dd1a5bdb88195b991959609a1b60448201526064016103ca565b333b1580610d8c57503360009081526001602052604090205460ff165b610dd85760405162461bcd60e51b815260206004820152601e60248201527f6f6e6c79206e6f6e20636f6e747261637473206f7220617070726f766564000060448201526064016103ca565b600082815260026020526040902060038101546001600160801b03163411610e305760405162461bcd60e51b815260206004820152600b60248201526a62696420746f6f206c6f7760a81b60448201526064016103ca565b60048101546001600160a01b031615801590610e58575060048101546001600160a01b03163b155b15610ea957600481015460038201546040516001600160a01b03909216916001600160801b0390911680156108fc02916000818181858888f19350505050158015610ea7573d6000803e3d6000fd5b505b600481018054336001600160a01b03199091161790556003810180546001600160801b031916346001600160801b03161790556040518381527fce3fcb8cb2d98bb5670375017977cabb3197f05cb7d1964f502e63a5a6b4457b9060200160405180910390a1505050565b6000546001600160a01b03163314610f3e5760405162461bcd60e51b81526004016103ca906112fa565b6001600160a01b038116610fa35760405162461bcd60e51b815260206004820152602660248201527f4f776e61626c653a206e6577206f776e657220697320746865207a65726f206160448201526564647265737360d01b60648201526084016103ca565b610fac81610faf565b50565b600080546001600160a01b038381166001600160a01b0319831681178455604051919092169283917f8be0079c531659141344cd1fd0a4f28419497f9722a3daafe3b4186f6b6457e09190a35050565b600061100a83611024565b801561101b575061101b8383611057565b90505b92915050565b6000611037826301ffc9a760e01b611057565b801561101e5750611050826001600160e01b0319611057565b1592915050565b604080516001600160e01b0319831660248083019190915282518083039091018152604490910182526020810180516001600160e01b03166301ffc9a760e01b179052905160009190829081906001600160a01b03871690617530906110be908690611410565b6000604051808303818686fa925050503d80600081146110fa576040519150601f19603f3d011682016040523d82523d6000602084013e6110ff565b606091505b509150915060208151101561111a576000935050505061101e565b818015611136575080806020019051810190611136919061144b565b9695505050505050565b6001600160a01b0381168114610fac57600080fd5b60006020828403121561116757600080fd5b813561117281611140565b9392505050565b634e487b7160e01b600052604160045260246000fd5b600080600080608085870312156111a557600080fd5b84356111b081611140565b935060208501356111c081611140565b925060408501359150606085013567ffffffffffffffff808211156111e457600080fd5b818701915087601f8301126111f857600080fd5b81358181111561120a5761120a611179565b604051601f8201601f19908116603f0116810190838211818310171561123257611232611179565b816040528281528a602084870101111561124b57600080fd5b82602086016020830137600060208483010152809550505050505092959194509250565b60006020828403121561128157600080fd5b5035919050565b60006020828403121561129a57600080fd5b813561ffff8116811461117257600080fd5b6000806000606084860312156112c157600080fd5b83356112cc81611140565b92506020840135915060408401356001600160801b03811681146112ef57600080fd5b809150509250925092565b6020808252818101527f4f776e61626c653a2063616c6c6572206973206e6f7420746865206f776e6572604082015260600190565b6000806040838503121561134257600080fd5b825161134d81611140565b6020939093015192949293505050565b634e487b7160e01b600052601160045260246000fd5b60006001600160801b03808316818516818304811182151516156113995761139961135d565b02949350505050565b60006001600160801b03808416806113ca57634e487b7160e01b600052601260045260246000fd5b92169190910492915050565b600061ffff838116908316818110156113f1576113f161135d565b039392505050565b60008282101561140b5761140b61135d565b500390565b6000825160005b818110156114315760208186018101518583015201611417565b81811115611440576000828501525b509190910192915050565b60006020828403121561145d57600080fd5b8151801515811461117257600080fdfea2646970667358221220093c9ba232483341ab1d10b11a44dcef5d55acf7f1953e00c74b56304c0ea68264736f6c63430008090033",
  "linkReferences": {},
  "deployedLinkReferences": {}
}