{
  "_format": "hh-sol-artifact-1",
  "contractName": "ERC1155ListingMarketplace",
  "sourceName": "contracts/ERC1155Marketplace/ERC1155ListingMarketplace.sol",
  "abi": [
    {
      "inputs": [
        {
          "internalType": "address payable",
          "name": "_feeDestination",
          "type": "address"
        }
      ],
      "stateMutability": "nonpayable",
      "type": "constructor"
    },
    {
      "anonymous": false,
      "inputs": [
        {
          "indexed": false,
          "internalType": "bytes32",
          "name": "id",
          "type": "bytes32"
        }
      ],
      "name": "ListingCompleted",
      "type": "event"
    },
    {
      "anonymous": false,
      "inputs": [
        {
          "indexed": false,
          "internalType": "bytes32",
          "name": "id",
          "type": "bytes32"
        }
      ],
      "name": "ListingCreated",
      "type": "event"
    },
    {
      "anonymous": false,
      "inputs": [
        {
          "indexed": false,
          "internalType": "bytes32",
          "name": "id",
          "type": "bytes32"
        }
      ],
      "name": "ListingOfferPlaced",
      "type": "event"
    },
    {
      "anonymous": false,
      "inputs": [
        {
          "indexed": false,
          "internalType": "bytes32",
          "name": "id",
          "type": "bytes32"
        }
      ],
      "name": "ListingOfferWithdrawn",
      "type": "event"
    },
    {
      "anonymous": false,
      "inputs": [
        {
          "indexed": false,
          "internalType": "bytes32",
          "name": "id",
          "type": "bytes32"
        }
      ],
      "name": "ListingRemoved",
      "type": "event"
    },
    {
      "anonymous": false,
      "inputs": [
        {
          "indexed": true,
          "internalType": "address",
          "name": "previousOwner",
          "type": "address"
        },
        {
          "indexed": true,
          "internalType": "address",
          "name": "newOwner",
          "type": "address"
        }
      ],
      "name": "OwnershipTransferred",
      "type": "event"
    },
    {
      "inputs": [
        {
          "internalType": "bytes32",
          "name": "_id",
          "type": "bytes32"
        }
      ],
      "name": "acceptListingOffer",
      "outputs": [],
      "stateMutability": "nonpayable",
      "type": "function"
    },
    {
      "inputs": [
        {
          "internalType": "address",
          "name": "_contractAddress",
          "type": "address"
        }
      ],
      "name": "addApprovedContract",
      "outputs": [],
      "stateMutability": "nonpayable",
      "type": "function"
    },
    {
      "inputs": [
        {
          "internalType": "address",
          "name": "",
          "type": "address"
        }
      ],
      "name": "approvedContracts",
      "outputs": [
        {
          "internalType": "bool",
          "name": "",
          "type": "bool"
        }
      ],
      "stateMutability": "view",
      "type": "function"
    },
    {
      "inputs": [
        {
          "internalType": "uint16",
          "name": "_fee",
          "type": "uint16"
        }
      ],
      "name": "changeFee",
      "outputs": [],
      "stateMutability": "nonpayable",
      "type": "function"
    },
    {
      "inputs": [
        {
          "internalType": "address payable",
          "name": "_feeDestination",
          "type": "address"
        }
      ],
      "name": "changeFeeDestination",
      "outputs": [],
      "stateMutability": "nonpayable",
      "type": "function"
    },
    {
      "inputs": [
        {
          "internalType": "address",
          "name": "_tokenAddress",
          "type": "address"
        },
        {
          "internalType": "uint256",
          "name": "_tokenId",
          "type": "uint256"
        },
        {
          "internalType": "uint256",
          "name": "_tokenQty",
          "type": "uint256"
        }
      ],
      "name": "createListing",
      "outputs": [
        {
          "internalType": "bytes32",
          "name": "",
          "type": "bytes32"
        }
      ],
      "stateMutability": "nonpayable",
      "type": "function"
    },
    {
      "inputs": [],
      "name": "fee",
      "outputs": [
        {
          "internalType": "uint16",
          "name": "",
          "type": "uint16"
        }
      ],
      "stateMutability": "view",
      "type": "function"
    },
    {
      "inputs": [],
      "name": "feeDestination",
      "outputs": [
        {
          "internalType": "address payable",
          "name": "",
          "type": "address"
        }
      ],
      "stateMutability": "view",
      "type": "function"
    },
    {
      "inputs": [
        {
          "internalType": "bytes32",
          "name": "",
          "type": "bytes32"
        }
      ],
      "name": "listings",
      "outputs": [
        {
          "internalType": "address",
          "name": "tokenAddress",
          "type": "address"
        },
        {
          "internalType": "uint256",
          "name": "tokenId",
          "type": "uint256"
        },
        {
          "internalType": "uint256",
          "name": "tokenQty",
          "type": "uint256"
        },
        {
          "internalType": "address",
          "name": "owner",
          "type": "address"
        },
        {
          "internalType": "uint128",
          "name": "offer",
          "type": "uint128"
        },
        {
          "internalType": "address",
          "name": "offeror",
          "type": "address"
        },
        {
          "internalType": "uint128",
          "name": "offerPlacedAt",
          "type": "uint128"
        }
      ],
      "stateMutability": "view",
      "type": "function"
    },
    {
      "inputs": [
        {
          "internalType": "address",
          "name": "",
          "type": "address"
        },
        {
          "internalType": "address",
          "name": "",
          "type": "address"
        },
        {
          "internalType": "uint256[]",
          "name": "",
          "type": "uint256[]"
        },
        {
          "internalType": "uint256[]",
          "name": "",
          "type": "uint256[]"
        },
        {
          "internalType": "bytes",
          "name": "",
          "type": "bytes"
        }
      ],
      "name": "onERC1155BatchReceived",
      "outputs": [
        {
          "internalType": "bytes4",
          "name": "",
          "type": "bytes4"
        }
      ],
      "stateMutability": "nonpayable",
      "type": "function"
    },
    {
      "inputs": [
        {
          "internalType": "address",
          "name": "",
          "type": "address"
        },
        {
          "internalType": "address",
          "name": "",
          "type": "address"
        },
        {
          "internalType": "uint256",
          "name": "",
          "type": "uint256"
        },
        {
          "internalType": "uint256",
          "name": "",
          "type": "uint256"
        },
        {
          "internalType": "bytes",
          "name": "",
          "type": "bytes"
        }
      ],
      "name": "onERC1155Received",
      "outputs": [
        {
          "internalType": "bytes4",
          "name": "",
          "type": "bytes4"
        }
      ],
      "stateMutability": "nonpayable",
      "type": "function"
    },
    {
      "inputs": [],
      "name": "owner",
      "outputs": [
        {
          "internalType": "address",
          "name": "",
          "type": "address"
        }
      ],
      "stateMutability": "view",
      "type": "function"
    },
    {
      "inputs": [
        {
          "internalType": "bytes32",
          "name": "_id",
          "type": "bytes32"
        }
      ],
      "name": "placeOffer",
      "outputs": [],
      "stateMutability": "payable",
      "type": "function"
    },
    {
      "inputs": [
        {
          "internalType": "bytes32",
          "name": "_id",
          "type": "bytes32"
        }
      ],
      "name": "removeListing",
      "outputs": [],
      "stateMutability": "nonpayable",
      "type": "function"
    },
    {
      "inputs": [],
      "name": "renounceOwnership",
      "outputs": [],
      "stateMutability": "nonpayable",
      "type": "function"
    },
    {
      "inputs": [
        {
          "internalType": "bytes4",
          "name": "interfaceId",
          "type": "bytes4"
        }
      ],
      "name": "supportsInterface",
      "outputs": [
        {
          "internalType": "bool",
          "name": "",
          "type": "bool"
        }
      ],
      "stateMutability": "view",
      "type": "function"
    },
    {
      "inputs": [
        {
          "internalType": "address",
          "name": "newOwner",
          "type": "address"
        }
      ],
      "name": "transferOwnership",
      "outputs": [],
      "stateMutability": "nonpayable",
      "type": "function"
    },
    {
      "inputs": [
        {
          "internalType": "bytes32",
          "name": "_id",
          "type": "bytes32"
        }
      ],
      "name": "withdrawOffer",
      "outputs": [],
      "stateMutability": "nonpayable",
      "type": "function"
    }
  ],
  "bytecode": "0x60806040526003805461ffff60a01b1916607d60a21b17905534801561002457600080fd5b5060405162001c8f38038062001c8f833981016040819052610045916100a4565b61004e33610054565b506100d4565b600080546001600160a01b038381166001600160a01b0319831681178455604051919092169283917f8be0079c531659141344cd1fd0a4f28419497f9722a3daafe3b4186f6b6457e09190a35050565b6000602082840312156100b657600080fd5b81516001600160a01b03811681146100cd57600080fd5b9392505050565b611bab80620000e46000396000f3fe6080604052600436106101095760003560e01c8063715018a611610095578063c71f681811610064578063c71f6818146103af578063ddca3f43146103c2578063de53fcd5146103f7578063f23a6e6114610417578063f2fde38b1461044357600080fd5b8063715018a6146102635780638da5cb5b14610278578063bc197c81146102aa578063c18b8db4146102ef57600080fd5b806326749ad7116100dc57806326749ad7146101b35780633407facd146101e3578063550ee133146102035780635ff548691461022357806367bd3df21461024357600080fd5b806301ffc9a71461010e578063135171be146101435780631e18cb891461016557806324780c5614610185575b600080fd5b34801561011a57600080fd5b5061012e61012936600461164c565b610463565b60405190151581526020015b60405180910390f35b34801561014f57600080fd5b5061016361015e36600461168b565b61049a565b005b34801561017157600080fd5b5061016361018036600461168b565b6104f4565b34801561019157600080fd5b506101a56101a03660046116a8565b610540565b60405190815260200161013a565b3480156101bf57600080fd5b5061012e6101ce36600461168b565b60016020526000908152604090205460ff1681565b3480156101ef57600080fd5b506101636101fe3660046116dd565b610746565b34801561020f57600080fd5b5061016361021e366004611701565b6107db565b34801561022f57600080fd5b5061016361023e366004611701565b610b6e565b34801561024f57600080fd5b5061016361025e366004611701565b610ccc565b34801561026f57600080fd5b50610163611259565b34801561028457600080fd5b506000546001600160a01b03165b6040516001600160a01b03909116815260200161013a565b3480156102b657600080fd5b506102d66102c5366004611851565b63bc197c8160e01b95945050505050565b6040516001600160e01b0319909116815260200161013a565b3480156102fb57600080fd5b5061036061030a366004611701565b600260208190526000918252604090912080546001820154928201546003830154600484015460058501546006909501546001600160a01b0394851696959394928316936001600160801b039283169316911687565b604080516001600160a01b039889168152602081019790975286019490945291851660608501526001600160801b039081166080850152931660a08301529190911660c082015260e00161013a565b6101636103bd366004611701565b61128f565b3480156103ce57600080fd5b506003546103e490600160a01b900461ffff1681565b60405161ffff909116815260200161013a565b34801561040357600080fd5b50600354610292906001600160a01b031681565b34801561042357600080fd5b506102d66104323660046118ff565b63f23a6e6160e01b95945050505050565b34801561044f57600080fd5b5061016361045e36600461168b565b611422565b60006001600160e01b03198216630271189760e51b148061049457506301ffc9a760e01b6001600160e01b03198316145b92915050565b6000546001600160a01b031633146104cd5760405162461bcd60e51b81526004016104c490611968565b60405180910390fd5b6001600160a01b03166000908152600160208190526040909120805460ff19169091179055565b6000546001600160a01b0316331461051e5760405162461bcd60e51b81526004016104c490611968565b600380546001600160a01b0319166001600160a01b0392909216919091179055565b6000333b158061055f57503360009081526001602052604090205460ff165b61057b5760405162461bcd60e51b81526004016104c49061199d565b604051637921219560e11b81526001600160a01b0385169063f242432a906105ad9032903090889088906004016119d4565b600060405180830381600087803b1580156105c757600080fd5b505af11580156105db573d6000803e3d6000fd5b50506040516bffffffffffffffffffffffff19606088811b82166020840152603483018890526054830187905232901b1660748201524260888201526000925060a801905060408051808303601f19018152828252805160209182012060e0840183526001600160a01b038981168552828501898152858501898152326060880190815260006080890181815260a08a0182815260c08b018381528884526002808b52938b90209b518c546001600160a01b0319908116918a16919091178d55965160018d01559451928b0192909255915160038a018054861691871691909117905590516004890180546001600160801b03199081166001600160801b0393841617909155915160058a0180549095169516949094179092555160069096018054909116959091169490941790935590518281529192507fc40c5d31a64e8e78c2eeb93bf6c23dc289b41965cc46caf25ec99ae5d3f60cd0910160405180910390a1949350505050565b6000546001600160a01b031633146107705760405162461bcd60e51b81526004016104c490611968565b6102ee8161ffff1611156107b95760405162461bcd60e51b815260206004820152601060248201526f746f6f20626967206f6620612066656560801b60448201526064016104c4565b6003805461ffff909216600160a01b0261ffff60a01b19909216919091179055565b60008181526002602052604090206003015481906001600160a01b0316331461083b5760405162461bcd60e51b815260206004820152601260248201527137b7363c903634b9ba34b7339037bbb732b960711b60448201526064016104c4565b333b158061085857503360009081526001602052604090205460ff165b6108745760405162461bcd60e51b81526004016104c49061199d565b6000600260008481526020019081526020016000206040518060e00160405290816000820160009054906101000a90046001600160a01b03166001600160a01b03166001600160a01b0316815260200160018201548152602001600282015481526020016003820160009054906101000a90046001600160a01b03166001600160a01b03166001600160a01b031681526020016004820160009054906101000a90046001600160801b03166001600160801b03166001600160801b031681526020016005820160009054906101000a90046001600160a01b03166001600160a01b03166001600160a01b031681526020016006820160009054906101000a90046001600160801b03166001600160801b03166001600160801b031681525050905060026000848152602001908152602001600020600080820160006101000a8154906001600160a01b030219169055600182016000905560028201600090556003820160006101000a8154906001600160a01b0302191690556004820160006101000a8154906001600160801b0302191690556005820160006101000a8154906001600160a01b0302191690556006820160006101000a8154906001600160801b030219169055505060006001600160a01b03168160a001516001600160a01b031614158015610a70575060a08101516001600160a01b03163b155b15610ac1578060a001516001600160a01b03166108fc82608001516001600160801b03169081150290604051600060405180830381858888f19350505050158015610abf573d6000803e3d6000fd5b505b805160208201516040808401519051637921219560e11b81526001600160a01b039093169263f242432a92610afe923092339291906004016119d4565b600060405180830381600087803b158015610b1857600080fd5b505af1158015610b2c573d6000803e3d6000fd5b505050507f50425cae216bd151d26c8e8bb9779cc899c99d72f78081f2ceec9a99f001ff7983604051610b6191815260200190565b60405180910390a1505050565b60008181526002602052604090206005015481906001600160a01b03163314610bc85760405162461bcd60e51b815260206004820152600c60248201526b37b7363c9037b33332b937b960a11b60448201526064016104c4565b60008281526002602052604090206006810154610bf1906001600160801b03166202a300611a22565b6001600160801b03164211610c3f5760405162461bcd60e51b81526020600482015260146024820152737769746864726177616c20746f6f206561726c7960601b60448201526064016104c4565b6004810180546001600160801b03199081169091556005820180546001600160a01b0319169055600682018054909116905560405133906108fc9060009081818181818888f19350505050158015610c9b573d6000803e3d6000fd5b506040518381527ff7c2501e0887f392db4213a4adf0460f214c4135536298ddb725b50d378a815f90602001610b61565b60008181526002602052604090206003015481906001600160a01b03163314610d2c5760405162461bcd60e51b815260206004820152601260248201527137b7363c903634b9ba34b7339037bbb732b960711b60448201526064016104c4565b60008281526002602052604090206005015482906001600160a01b0316610d8d5760405162461bcd60e51b81526020600482015260156024820152743634b9ba34b733903bb4ba341037379037b33332b960591b60448201526064016104c4565b333b1580610daa57503360009081526001602052604090205460ff165b610dc65760405162461bcd60e51b81526004016104c49061199d565b6000600260008581526020019081526020016000206040518060e00160405290816000820160009054906101000a90046001600160a01b03166001600160a01b03166001600160a01b0316815260200160018201548152602001600282015481526020016003820160009054906101000a90046001600160a01b03166001600160a01b03166001600160a01b031681526020016004820160009054906101000a90046001600160801b03166001600160801b03166001600160801b031681526020016005820160009054906101000a90046001600160a01b03166001600160a01b03166001600160a01b031681526020016006820160009054906101000a90046001600160801b03166001600160801b03166001600160801b031681525050905060026000858152602001908152602001600020600080820160006101000a8154906001600160a01b030219169055600182016000905560028201600090556003820160006101000a8154906001600160a01b0302191690556004820160006101000a8154906001600160801b0302191690556005820160006101000a8154906001600160a01b0302191690556006820160006101000a8154906001600160801b0302191690555050600080610fb963152a902d60e11b84600001516001600160a01b03166114bd90919063ffffffff16565b156110575782516020840151608085015160405163152a902d60e11b815260048101929092526001600160801b031660248201526001600160a01b0390911690632a55205a90604401604080518083038186803b15801561101957600080fd5b505afa15801561102d573d6000803e3d6000fd5b505050506040513d601f19601f820116820180604052508101906110519190611a4d565b90925090505b8015611095576040516001600160a01b0383169082156108fc029083906000818181858888f19350505050158015611093573d6000803e3d6000fd5b505b600354600160a01b900461ffff16156111195760035460808401516001600160a01b038216916108fc91612710916110d991600160a01b90910461ffff1690611a7b565b6110e39190611aaa565b6001600160801b03169081150290604051600060405180830381858888f19350505050158015611117573d6000803e3d6000fd5b505b60035433906108fc9083906127109061113d90600160a01b900461ffff1682611ade565b61ffff1687608001516111509190611a7b565b61115a9190611aaa565b6001600160801b031661116d9190611b01565b6040518115909202916000818181858888f19350505050158015611195573d6000803e3d6000fd5b5060a08301516001600160a01b03163b61121e5782600001516001600160a01b031663f242432a308560a00151866020015187604001516040518563ffffffff1660e01b81526004016111eb94939291906119d4565b600060405180830381600087803b15801561120557600080fd5b505af1158015611219573d6000803e3d6000fd5b505050505b6040518681527fff26203f834d4e158eec2037d6515831e0fe8ac0bf1c95fca04ec8f48467e9819060200160405180910390a1505050505050565b6000546001600160a01b031633146112835760405162461bcd60e51b81526004016104c490611968565b61128d60006114e0565b565b333b15806112ac57503360009081526001602052604090205460ff165b6112c85760405162461bcd60e51b81526004016104c49061199d565b600081815260026020526040902060048101546001600160801b031634116113225760405162461bcd60e51b815260206004820152600d60248201526c6f6666657220746f6f206c6f7760981b60448201526064016104c4565b60058101546001600160a01b03161580159061134a575060058101546001600160a01b03163b155b1561139b57600581015460048201546040516001600160a01b03909216916001600160801b0390911680156108fc02916000818181858888f19350505050158015611399573d6000803e3d6000fd5b505b6005810180546001600160a01b031916331790556004810180546001600160801b033481166001600160801b03199283161790925560068301805442909316929091169190911790556040517f28785bef5b7a3b0190b82866b9e7d9fe1aae92fe285d15b79a990fe28b2691a0906114169084815260200190565b60405180910390a15050565b6000546001600160a01b0316331461144c5760405162461bcd60e51b81526004016104c490611968565b6001600160a01b0381166114b15760405162461bcd60e51b815260206004820152602660248201527f4f776e61626c653a206e6577206f776e657220697320746865207a65726f206160448201526564647265737360d01b60648201526084016104c4565b6114ba816114e0565b50565b60006114c883611530565b80156114d957506114d98383611563565b9392505050565b600080546001600160a01b038381166001600160a01b0319831681178455604051919092169283917f8be0079c531659141344cd1fd0a4f28419497f9722a3daafe3b4186f6b6457e09190a35050565b6000611543826301ffc9a760e01b611563565b8015610494575061155c826001600160e01b0319611563565b1592915050565b604080516001600160e01b0319831660248083019190915282518083039091018152604490910182526020810180516001600160e01b03166301ffc9a760e01b179052905160009190829081906001600160a01b03871690617530906115ca908690611b18565b6000604051808303818686fa925050503d8060008114611606576040519150601f19603f3d011682016040523d82523d6000602084013e61160b565b606091505b50915091506020815110156116265760009350505050610494565b8180156116425750808060200190518101906116429190611b53565b9695505050505050565b60006020828403121561165e57600080fd5b81356001600160e01b0319811681146114d957600080fd5b6001600160a01b03811681146114ba57600080fd5b60006020828403121561169d57600080fd5b81356114d981611676565b6000806000606084860312156116bd57600080fd5b83356116c881611676565b95602085013595506040909401359392505050565b6000602082840312156116ef57600080fd5b813561ffff811681146114d957600080fd5b60006020828403121561171357600080fd5b5035919050565b634e487b7160e01b600052604160045260246000fd5b604051601f8201601f1916810167ffffffffffffffff811182821017156117595761175961171a565b604052919050565b600082601f83011261177257600080fd5b8135602067ffffffffffffffff82111561178e5761178e61171a565b8160051b61179d828201611730565b92835284810182019282810190878511156117b757600080fd5b83870192505b848310156117d6578235825291830191908301906117bd565b979650505050505050565b600082601f8301126117f257600080fd5b813567ffffffffffffffff81111561180c5761180c61171a565b61181f601f8201601f1916602001611730565b81815284602083860101111561183457600080fd5b816020850160208301376000918101602001919091529392505050565b600080600080600060a0868803121561186957600080fd5b853561187481611676565b9450602086013561188481611676565b9350604086013567ffffffffffffffff808211156118a157600080fd5b6118ad89838a01611761565b945060608801359150808211156118c357600080fd5b6118cf89838a01611761565b935060808801359150808211156118e557600080fd5b506118f2888289016117e1565b9150509295509295909350565b600080600080600060a0868803121561191757600080fd5b853561192281611676565b9450602086013561193281611676565b93506040860135925060608601359150608086013567ffffffffffffffff81111561195c57600080fd5b6118f2888289016117e1565b6020808252818101527f4f776e61626c653a2063616c6c6572206973206e6f7420746865206f776e6572604082015260600190565b6020808252601e908201527f6f6e6c79206e6f6e20636f6e747261637473206f7220617070726f7665640000604082015260600190565b6001600160a01b0394851681529290931660208301526040820152606081019190915260a06080820181905260009082015260c00190565b634e487b7160e01b600052601160045260246000fd5b60006001600160801b03808316818516808303821115611a4457611a44611a0c565b01949350505050565b60008060408385031215611a6057600080fd5b8251611a6b81611676565b6020939093015192949293505050565b60006001600160801b0380831681851681830481118215151615611aa157611aa1611a0c565b02949350505050565b60006001600160801b0380841680611ad257634e487b7160e01b600052601260045260246000fd5b92169190910492915050565b600061ffff83811690831681811015611af957611af9611a0c565b039392505050565b600082821015611b1357611b13611a0c565b500390565b6000825160005b81811015611b395760208186018101518583015201611b1f565b81811115611b48576000828501525b509190910192915050565b600060208284031215611b6557600080fd5b815180151581146114d957600080fdfea2646970667358221220194ced965c21120f658e4bba36be37adcfd1e7f35fc43daee88fd235fc51b0a764736f6c63430008090033",
  "linkReferences": {},
  "deployedLinkReferences": {}
}