{
  "_format": "hh-sol-artifact-1",
  "contractName": "ERC721ListingMarketplace",
  "sourceName": "contracts/ERC721Marketplace/ERC721ListingMarketplace.sol",
  "abi": [
    {
      "inputs": [
        {
          "internalType": "address payable",
          "name": "_feeDestination",
          "type": "address"
        }
      ],
      "stateMutability": "nonpayable",
      "type": "constructor"
    },
    {
      "anonymous": false,
      "inputs": [
        {
          "indexed": false,
          "internalType": "bytes32",
          "name": "id",
          "type": "bytes32"
        }
      ],
      "name": "ListingCompleted",
      "type": "event"
    },
    {
      "anonymous": false,
      "inputs": [
        {
          "indexed": false,
          "internalType": "bytes32",
          "name": "id",
          "type": "bytes32"
        }
      ],
      "name": "ListingCreated",
      "type": "event"
    },
    {
      "anonymous": false,
      "inputs": [
        {
          "indexed": false,
          "internalType": "bytes32",
          "name": "id",
          "type": "bytes32"
        }
      ],
      "name": "ListingOfferPlaced",
      "type": "event"
    },
    {
      "anonymous": false,
      "inputs": [
        {
          "indexed": false,
          "internalType": "bytes32",
          "name": "id",
          "type": "bytes32"
        }
      ],
      "name": "ListingOfferWithdrawn",
      "type": "event"
    },
    {
      "anonymous": false,
      "inputs": [
        {
          "indexed": false,
          "internalType": "bytes32",
          "name": "id",
          "type": "bytes32"
        }
      ],
      "name": "ListingRemoved",
      "type": "event"
    },
    {
      "anonymous": false,
      "inputs": [
        {
          "indexed": true,
          "internalType": "address",
          "name": "previousOwner",
          "type": "address"
        },
        {
          "indexed": true,
          "internalType": "address",
          "name": "newOwner",
          "type": "address"
        }
      ],
      "name": "OwnershipTransferred",
      "type": "event"
    },
    {
      "inputs": [
        {
          "internalType": "bytes32",
          "name": "_id",
          "type": "bytes32"
        }
      ],
      "name": "acceptListingOffer",
      "outputs": [],
      "stateMutability": "nonpayable",
      "type": "function"
    },
    {
      "inputs": [
        {
          "internalType": "address",
          "name": "_contractAddress",
          "type": "address"
        }
      ],
      "name": "addApprovedContract",
      "outputs": [],
      "stateMutability": "nonpayable",
      "type": "function"
    },
    {
      "inputs": [
        {
          "internalType": "address",
          "name": "",
          "type": "address"
        }
      ],
      "name": "approvedContracts",
      "outputs": [
        {
          "internalType": "bool",
          "name": "",
          "type": "bool"
        }
      ],
      "stateMutability": "view",
      "type": "function"
    },
    {
      "inputs": [
        {
          "internalType": "uint16",
          "name": "_fee",
          "type": "uint16"
        }
      ],
      "name": "changeFee",
      "outputs": [],
      "stateMutability": "nonpayable",
      "type": "function"
    },
    {
      "inputs": [
        {
          "internalType": "address payable",
          "name": "_feeDestination",
          "type": "address"
        }
      ],
      "name": "changeFeeDestination",
      "outputs": [],
      "stateMutability": "nonpayable",
      "type": "function"
    },
    {
      "inputs": [
        {
          "internalType": "address",
          "name": "_tokenAddress",
          "type": "address"
        },
        {
          "internalType": "uint256",
          "name": "_tokenId",
          "type": "uint256"
        }
      ],
      "name": "createListing",
      "outputs": [
        {
          "internalType": "bytes32",
          "name": "",
          "type": "bytes32"
        }
      ],
      "stateMutability": "nonpayable",
      "type": "function"
    },
    {
      "inputs": [],
      "name": "fee",
      "outputs": [
        {
          "internalType": "uint16",
          "name": "",
          "type": "uint16"
        }
      ],
      "stateMutability": "view",
      "type": "function"
    },
    {
      "inputs": [],
      "name": "feeDestination",
      "outputs": [
        {
          "internalType": "address payable",
          "name": "",
          "type": "address"
        }
      ],
      "stateMutability": "view",
      "type": "function"
    },
    {
      "inputs": [
        {
          "internalType": "bytes32",
          "name": "",
          "type": "bytes32"
        }
      ],
      "name": "listings",
      "outputs": [
        {
          "internalType": "address",
          "name": "tokenAddress",
          "type": "address"
        },
        {
          "internalType": "uint256",
          "name": "tokenId",
          "type": "uint256"
        },
        {
          "internalType": "address",
          "name": "owner",
          "type": "address"
        },
        {
          "internalType": "uint128",
          "name": "offer",
          "type": "uint128"
        },
        {
          "internalType": "address",
          "name": "offeror",
          "type": "address"
        },
        {
          "internalType": "uint128",
          "name": "offerPlacedAt",
          "type": "uint128"
        }
      ],
      "stateMutability": "view",
      "type": "function"
    },
    {
      "inputs": [
        {
          "internalType": "address",
          "name": "",
          "type": "address"
        },
        {
          "internalType": "address",
          "name": "",
          "type": "address"
        },
        {
          "internalType": "uint256",
          "name": "",
          "type": "uint256"
        },
        {
          "internalType": "bytes",
          "name": "",
          "type": "bytes"
        }
      ],
      "name": "onERC721Received",
      "outputs": [
        {
          "internalType": "bytes4",
          "name": "",
          "type": "bytes4"
        }
      ],
      "stateMutability": "nonpayable",
      "type": "function"
    },
    {
      "inputs": [],
      "name": "owner",
      "outputs": [
        {
          "internalType": "address",
          "name": "",
          "type": "address"
        }
      ],
      "stateMutability": "view",
      "type": "function"
    },
    {
      "inputs": [
        {
          "internalType": "bytes32",
          "name": "_id",
          "type": "bytes32"
        }
      ],
      "name": "placeOffer",
      "outputs": [],
      "stateMutability": "payable",
      "type": "function"
    },
    {
      "inputs": [
        {
          "internalType": "bytes32",
          "name": "_id",
          "type": "bytes32"
        }
      ],
      "name": "removeListing",
      "outputs": [],
      "stateMutability": "nonpayable",
      "type": "function"
    },
    {
      "inputs": [],
      "name": "renounceOwnership",
      "outputs": [],
      "stateMutability": "nonpayable",
      "type": "function"
    },
    {
      "inputs": [
        {
          "internalType": "address",
          "name": "newOwner",
          "type": "address"
        }
      ],
      "name": "transferOwnership",
      "outputs": [],
      "stateMutability": "nonpayable",
      "type": "function"
    },
    {
      "inputs": [
        {
          "internalType": "bytes32",
          "name": "_id",
          "type": "bytes32"
        }
      ],
      "name": "withdrawOffer",
      "outputs": [],
      "stateMutability": "nonpayable",
      "type": "function"
    }
  ],
  "bytecode": "0x60806040526003805461ffff60a01b1916607d60a21b17905534801561002457600080fd5b506040516119ef3803806119ef833981016040819052610043916100a2565b61004c33610052565b506100d2565b600080546001600160a01b038381166001600160a01b0319831681178455604051919092169283917f8be0079c531659141344cd1fd0a4f28419497f9722a3daafe3b4186f6b6457e09190a35050565b6000602082840312156100b457600080fd5b81516001600160a01b03811681146100cb57600080fd5b9392505050565b61190e806100e16000396000f3fe6080604052600436106100f35760003560e01c8063715018a61161008a578063c71f681811610059578063c71f68181461036e578063ddca3f4314610381578063de53fcd5146103b6578063f2fde38b146103d657600080fd5b8063715018a61461024357806385e1c724146102585780638da5cb5b14610286578063c18b8db4146102b857600080fd5b80633407facd116100c65780633407facd146101c3578063550ee133146101e35780635ff548691461020357806367bd3df21461022357600080fd5b8063135171be146100f8578063150b7a021461011a5780631e18cb891461016357806326749ad714610183575b600080fd5b34801561010457600080fd5b50610118610113366004611587565b6103f6565b005b34801561012657600080fd5b506101456101353660046115ba565b630a85bd0160e11b949350505050565b6040516001600160e01b031990911681526020015b60405180910390f35b34801561016f57600080fd5b5061011861017e366004611587565b610450565b34801561018f57600080fd5b506101b361019e366004611587565b60016020526000908152604090205460ff1681565b604051901515815260200161015a565b3480156101cf57600080fd5b506101186101de36600461169a565b61049c565b3480156101ef57600080fd5b506101186101fe3660046116be565b610531565b34801561020f57600080fd5b5061011861021e3660046116be565b6108b3565b34801561022f57600080fd5b5061011861023e3660046116be565b610a11565b34801561024f57600080fd5b50610118610f8e565b34801561026457600080fd5b506102786102733660046116d7565b610fc4565b60405190815260200161015a565b34801561029257600080fd5b506000546001600160a01b03165b6040516001600160a01b03909116815260200161015a565b3480156102c457600080fd5b506103226102d33660046116be565b60026020819052600091825260409091208054600182015492820154600383015460048401546005909401546001600160a01b039384169594928416936001600160801b039283169316911686565b604080516001600160a01b0397881681526020810196909652938616938501939093526001600160801b03918216606085015290931660808301529190911660a082015260c00161015a565b61011861037c3660046116be565b6111b5565b34801561038d57600080fd5b506003546103a390600160a01b900461ffff1681565b60405161ffff909116815260200161015a565b3480156103c257600080fd5b506003546102a0906001600160a01b031681565b3480156103e257600080fd5b506101186103f1366004611587565b611348565b6000546001600160a01b031633146104295760405162461bcd60e51b815260040161042090611703565b60405180910390fd5b6001600160a01b03166000908152600160208190526040909120805460ff19169091179055565b6000546001600160a01b0316331461047a5760405162461bcd60e51b815260040161042090611703565b600380546001600160a01b0319166001600160a01b0392909216919091179055565b6000546001600160a01b031633146104c65760405162461bcd60e51b815260040161042090611703565b6102ee8161ffff16111561050f5760405162461bcd60e51b815260206004820152601060248201526f746f6f20626967206f6620612066656560801b6044820152606401610420565b6003805461ffff909216600160a01b0261ffff60a01b19909216919091179055565b6000818152600260208190526040909120015481906001600160a01b031633146105925760405162461bcd60e51b815260206004820152601260248201527137b7363c903634b9ba34b7339037bbb732b960711b6044820152606401610420565b333b15806105af57503360009081526001602052604090205460ff165b6105cb5760405162461bcd60e51b815260040161042090611738565b6000600260008481526020019081526020016000206040518060c00160405290816000820160009054906101000a90046001600160a01b03166001600160a01b03166001600160a01b03168152602001600182015481526020016002820160009054906101000a90046001600160a01b03166001600160a01b03166001600160a01b031681526020016003820160009054906101000a90046001600160801b03166001600160801b03166001600160801b031681526020016004820160009054906101000a90046001600160a01b03166001600160a01b03166001600160a01b031681526020016005820160009054906101000a90046001600160801b03166001600160801b03166001600160801b031681525050905060026000848152602001908152602001600020600080820160006101000a8154906001600160a01b03021916905560018201600090556002820160006101000a8154906001600160a01b0302191690556003820160006101000a8154906001600160801b0302191690556004820160006101000a8154906001600160a01b0302191690556005820160006101000a8154906001600160801b030219169055505060006001600160a01b031681608001516001600160a01b0316141580156107b5575060808101516001600160a01b03163b155b156108065780608001516001600160a01b03166108fc82606001516001600160801b03169081150290604051600060405180830381858888f19350505050158015610804573d6000803e3d6000fd5b505b80516020820151604051632142170760e11b815230600482015233602482015260448101919091526001600160a01b03909116906342842e0e90606401600060405180830381600087803b15801561085d57600080fd5b505af1158015610871573d6000803e3d6000fd5b505050507f50425cae216bd151d26c8e8bb9779cc899c99d72f78081f2ceec9a99f001ff79836040516108a691815260200190565b60405180910390a1505050565b60008181526002602052604090206004015481906001600160a01b0316331461090d5760405162461bcd60e51b815260206004820152600c60248201526b37b7363c9037b33332b937b960a11b6044820152606401610420565b60008281526002602052604090206005810154610936906001600160801b03166202a300611785565b6001600160801b031642116109845760405162461bcd60e51b81526020600482015260146024820152737769746864726177616c20746f6f206561726c7960601b6044820152606401610420565b6003810180546001600160801b03199081169091556004820180546001600160a01b0319169055600582018054909116905560405133906108fc9060009081818181818888f193505050501580156109e0573d6000803e3d6000fd5b506040518381527ff7c2501e0887f392db4213a4adf0460f214c4135536298ddb725b50d378a815f906020016108a6565b6000818152600260208190526040909120015481906001600160a01b03163314610a725760405162461bcd60e51b815260206004820152601260248201527137b7363c903634b9ba34b7339037bbb732b960711b6044820152606401610420565b60008281526002602052604090206004015482906001600160a01b0316610ad35760405162461bcd60e51b81526020600482015260156024820152743634b9ba34b733903bb4ba341037379037b33332b960591b6044820152606401610420565b333b1580610af057503360009081526001602052604090205460ff165b610b0c5760405162461bcd60e51b815260040161042090611738565b6000600260008581526020019081526020016000206040518060c00160405290816000820160009054906101000a90046001600160a01b03166001600160a01b03166001600160a01b03168152602001600182015481526020016002820160009054906101000a90046001600160a01b03166001600160a01b03166001600160a01b031681526020016003820160009054906101000a90046001600160801b03166001600160801b03166001600160801b031681526020016004820160009054906101000a90046001600160a01b03166001600160a01b03166001600160a01b031681526020016005820160009054906101000a90046001600160801b03166001600160801b03166001600160801b031681525050905060026000858152602001908152602001600020600080820160006101000a8154906001600160a01b03021916905560018201600090556002820160006101000a8154906001600160a01b0302191690556003820160006101000a8154906001600160801b0302191690556004820160006101000a8154906001600160a01b0302191690556005820160006101000a8154906001600160801b0302191690555050600080610ced63152a902d60e11b84600001516001600160a01b03166113e390919063ffffffff16565b15610d8b5782516020840151606085015160405163152a902d60e11b815260048101929092526001600160801b031660248201526001600160a01b0390911690632a55205a90604401604080518083038186803b158015610d4d57600080fd5b505afa158015610d61573d6000803e3d6000fd5b505050506040513d601f19601f82011682018060405250810190610d8591906117b0565b90925090505b8015610dc9576040516001600160a01b0383169082156108fc029083906000818181858888f19350505050158015610dc7573d6000803e3d6000fd5b505b600354600160a01b900461ffff1615610e4d5760035460608401516001600160a01b038216916108fc9161271091610e0d91600160a01b90910461ffff16906117de565b610e17919061180d565b6001600160801b03169081150290604051600060405180830381858888f19350505050158015610e4b573d6000803e3d6000fd5b505b60035433906108fc90839061271090610e7190600160a01b900461ffff1682611841565b61ffff168760600151610e8491906117de565b610e8e919061180d565b6001600160801b0316610ea19190611864565b6040518115909202916000818181858888f19350505050158015610ec9573d6000803e3d6000fd5b5060808301516001600160a01b03163b610f5357825160808401516020850151604051632142170760e11b81523060048201526001600160a01b03928316602482015260448101919091529116906342842e0e90606401600060405180830381600087803b158015610f3a57600080fd5b505af1158015610f4e573d6000803e3d6000fd5b505050505b6040518681527fff26203f834d4e158eec2037d6515831e0fe8ac0bf1c95fca04ec8f48467e9819060200160405180910390a1505050505050565b6000546001600160a01b03163314610fb85760405162461bcd60e51b815260040161042090611703565b610fc26000611406565b565b6000333b1580610fe357503360009081526001602052604090205460ff165b610fff5760405162461bcd60e51b815260040161042090611738565b604051632142170760e11b8152326004820152306024820152604481018390526001600160a01b038416906342842e0e90606401600060405180830381600087803b15801561104d57600080fd5b505af1158015611061573d6000803e3d6000fd5b50506040516bffffffffffffffffffffffff19606087811b821660208401526034830187905232901b16605482015242606882015260009250608801905060408051808303601f19018152828252805160209182012060c0840183526001600160a01b038881168552828501888152328686019081526000606088018181526080890182815260a08a018381528784526002808a52938a90209a518b546001600160a01b0319908116918916919091178c55955160018c01559351928a018054861693871693909317909255516003890180546001600160801b03199081166001600160801b0393841617909155915160048a0180549095169516949094179092555160059096018054909116959091169490941790935590518281529192507fc40c5d31a64e8e78c2eeb93bf6c23dc289b41965cc46caf25ec99ae5d3f60cd0910160405180910390a190505b92915050565b333b15806111d257503360009081526001602052604090205460ff165b6111ee5760405162461bcd60e51b815260040161042090611738565b600081815260026020526040902060038101546001600160801b031634116112485760405162461bcd60e51b815260206004820152600d60248201526c6f6666657220746f6f206c6f7760981b6044820152606401610420565b60048101546001600160a01b031615801590611270575060048101546001600160a01b03163b155b156112c157600481015460038201546040516001600160a01b03909216916001600160801b0390911680156108fc02916000818181858888f193505050501580156112bf573d6000803e3d6000fd5b505b6004810180546001600160a01b031916331790556003810180546001600160801b033481166001600160801b03199283161790925560058301805442909316929091169190911790556040517f28785bef5b7a3b0190b82866b9e7d9fe1aae92fe285d15b79a990fe28b2691a09061133c9084815260200190565b60405180910390a15050565b6000546001600160a01b031633146113725760405162461bcd60e51b815260040161042090611703565b6001600160a01b0381166113d75760405162461bcd60e51b815260206004820152602660248201527f4f776e61626c653a206e6577206f776e657220697320746865207a65726f206160448201526564647265737360d01b6064820152608401610420565b6113e081611406565b50565b60006113ee83611456565b80156113ff57506113ff8383611489565b9392505050565b600080546001600160a01b038381166001600160a01b0319831681178455604051919092169283917f8be0079c531659141344cd1fd0a4f28419497f9722a3daafe3b4186f6b6457e09190a35050565b6000611469826301ffc9a760e01b611489565b80156111af5750611482826001600160e01b0319611489565b1592915050565b604080516001600160e01b0319831660248083019190915282518083039091018152604490910182526020810180516001600160e01b03166301ffc9a760e01b179052905160009190829081906001600160a01b03871690617530906114f090869061187b565b6000604051808303818686fa925050503d806000811461152c576040519150601f19603f3d011682016040523d82523d6000602084013e611531565b606091505b509150915060208151101561154c57600093505050506111af565b81801561156857508080602001905181019061156891906118b6565b9695505050505050565b6001600160a01b03811681146113e057600080fd5b60006020828403121561159957600080fd5b81356113ff81611572565b634e487b7160e01b600052604160045260246000fd5b600080600080608085870312156115d057600080fd5b84356115db81611572565b935060208501356115eb81611572565b925060408501359150606085013567ffffffffffffffff8082111561160f57600080fd5b818701915087601f83011261162357600080fd5b813581811115611635576116356115a4565b604051601f8201601f19908116603f0116810190838211818310171561165d5761165d6115a4565b816040528281528a602084870101111561167657600080fd5b82602086016020830137600060208483010152809550505050505092959194509250565b6000602082840312156116ac57600080fd5b813561ffff811681146113ff57600080fd5b6000602082840312156116d057600080fd5b5035919050565b600080604083850312156116ea57600080fd5b82356116f581611572565b946020939093013593505050565b6020808252818101527f4f776e61626c653a2063616c6c6572206973206e6f7420746865206f776e6572604082015260600190565b6020808252601e908201527f6f6e6c79206e6f6e20636f6e747261637473206f7220617070726f7665640000604082015260600190565b634e487b7160e01b600052601160045260246000fd5b60006001600160801b038083168185168083038211156117a7576117a761176f565b01949350505050565b600080604083850312156117c357600080fd5b82516117ce81611572565b6020939093015192949293505050565b60006001600160801b03808316818516818304811182151516156118045761180461176f565b02949350505050565b60006001600160801b038084168061183557634e487b7160e01b600052601260045260246000fd5b92169190910492915050565b600061ffff8381169083168181101561185c5761185c61176f565b039392505050565b6000828210156118765761187661176f565b500390565b6000825160005b8181101561189c5760208186018101518583015201611882565b818111156118ab576000828501525b509190910192915050565b6000602082840312156118c857600080fd5b815180151581146113ff57600080fdfea26469706673582212201233f232f9fb16d108bbad3a326f138c751a2b8f7dba2625daa7edf8f8b455ff64736f6c63430008090033",
  "linkReferences": {},
  "deployedLinkReferences": {}
}