{
  "_format": "hh-sol-artifact-1",
  "contractName": "ERC1155AuctionMarketplace",
  "sourceName": "contracts/ERC1155Marketplace/ERC1155AuctionMarketplace.sol",
  "abi": [
    {
      "inputs": [
        {
          "internalType": "address payable",
          "name": "_feeDestination",
          "type": "address"
        }
      ],
      "stateMutability": "nonpayable",
      "type": "constructor"
    },
    {
      "anonymous": false,
      "inputs": [
        {
          "indexed": false,
          "internalType": "bytes32",
          "name": "id",
          "type": "bytes32"
        }
      ],
      "name": "AuctionBidPlaced",
      "type": "event"
    },
    {
      "anonymous": false,
      "inputs": [
        {
          "indexed": false,
          "internalType": "bytes32",
          "name": "id",
          "type": "bytes32"
        }
      ],
      "name": "AuctionClaimed",
      "type": "event"
    },
    {
      "anonymous": false,
      "inputs": [
        {
          "indexed": false,
          "internalType": "bytes32",
          "name": "id",
          "type": "bytes32"
        }
      ],
      "name": "AuctionCreated",
      "type": "event"
    },
    {
      "anonymous": false,
      "inputs": [
        {
          "indexed": true,
          "internalType": "address",
          "name": "previousOwner",
          "type": "address"
        },
        {
          "indexed": true,
          "internalType": "address",
          "name": "newOwner",
          "type": "address"
        }
      ],
      "name": "OwnershipTransferred",
      "type": "event"
    },
    {
      "inputs": [
        {
          "internalType": "address",
          "name": "_contractAddress",
          "type": "address"
        }
      ],
      "name": "addApprovedContract",
      "outputs": [],
      "stateMutability": "nonpayable",
      "type": "function"
    },
    {
      "inputs": [
        {
          "internalType": "address",
          "name": "",
          "type": "address"
        }
      ],
      "name": "approvedContracts",
      "outputs": [
        {
          "internalType": "bool",
          "name": "",
          "type": "bool"
        }
      ],
      "stateMutability": "view",
      "type": "function"
    },
    {
      "inputs": [
        {
          "internalType": "bytes32",
          "name": "",
          "type": "bytes32"
        }
      ],
      "name": "auctions",
      "outputs": [
        {
          "internalType": "address",
          "name": "tokenAddress",
          "type": "address"
        },
        {
          "internalType": "uint256",
          "name": "tokenId",
          "type": "uint256"
        },
        {
          "internalType": "uint256",
          "name": "tokenQty",
          "type": "uint256"
        },
        {
          "internalType": "address",
          "name": "owner",
          "type": "address"
        },
        {
          "internalType": "uint128",
          "name": "bid",
          "type": "uint128"
        },
        {
          "internalType": "address",
          "name": "bidder",
          "type": "address"
        },
        {
          "internalType": "uint128",
          "name": "endsAt",
          "type": "uint128"
        }
      ],
      "stateMutability": "view",
      "type": "function"
    },
    {
      "inputs": [
        {
          "internalType": "bytes32",
          "name": "_id",
          "type": "bytes32"
        }
      ],
      "name": "bidOnAuction",
      "outputs": [],
      "stateMutability": "payable",
      "type": "function"
    },
    {
      "inputs": [
        {
          "internalType": "uint16",
          "name": "_fee",
          "type": "uint16"
        }
      ],
      "name": "changeFee",
      "outputs": [],
      "stateMutability": "nonpayable",
      "type": "function"
    },
    {
      "inputs": [
        {
          "internalType": "address payable",
          "name": "_feeDestination",
          "type": "address"
        }
      ],
      "name": "changeFeeDestination",
      "outputs": [],
      "stateMutability": "nonpayable",
      "type": "function"
    },
    {
      "inputs": [
        {
          "internalType": "bytes32",
          "name": "_id",
          "type": "bytes32"
        }
      ],
      "name": "claimAuction",
      "outputs": [],
      "stateMutability": "nonpayable",
      "type": "function"
    },
    {
      "inputs": [
        {
          "internalType": "address",
          "name": "_tokenAddress",
          "type": "address"
        },
        {
          "internalType": "uint256",
          "name": "_tokenId",
          "type": "uint256"
        },
        {
          "internalType": "uint256",
          "name": "_tokenQty",
          "type": "uint256"
        },
        {
          "internalType": "uint128",
          "name": "_endsAt",
          "type": "uint128"
        }
      ],
      "name": "createAuction",
      "outputs": [
        {
          "internalType": "bytes32",
          "name": "",
          "type": "bytes32"
        }
      ],
      "stateMutability": "nonpayable",
      "type": "function"
    },
    {
      "inputs": [],
      "name": "fee",
      "outputs": [
        {
          "internalType": "uint16",
          "name": "",
          "type": "uint16"
        }
      ],
      "stateMutability": "view",
      "type": "function"
    },
    {
      "inputs": [],
      "name": "feeDestination",
      "outputs": [
        {
          "internalType": "address payable",
          "name": "",
          "type": "address"
        }
      ],
      "stateMutability": "view",
      "type": "function"
    },
    {
      "inputs": [
        {
          "internalType": "address",
          "name": "",
          "type": "address"
        },
        {
          "internalType": "address",
          "name": "",
          "type": "address"
        },
        {
          "internalType": "uint256[]",
          "name": "",
          "type": "uint256[]"
        },
        {
          "internalType": "uint256[]",
          "name": "",
          "type": "uint256[]"
        },
        {
          "internalType": "bytes",
          "name": "",
          "type": "bytes"
        }
      ],
      "name": "onERC1155BatchReceived",
      "outputs": [
        {
          "internalType": "bytes4",
          "name": "",
          "type": "bytes4"
        }
      ],
      "stateMutability": "nonpayable",
      "type": "function"
    },
    {
      "inputs": [
        {
          "internalType": "address",
          "name": "",
          "type": "address"
        },
        {
          "internalType": "address",
          "name": "",
          "type": "address"
        },
        {
          "internalType": "uint256",
          "name": "",
          "type": "uint256"
        },
        {
          "internalType": "uint256",
          "name": "",
          "type": "uint256"
        },
        {
          "internalType": "bytes",
          "name": "",
          "type": "bytes"
        }
      ],
      "name": "onERC1155Received",
      "outputs": [
        {
          "internalType": "bytes4",
          "name": "",
          "type": "bytes4"
        }
      ],
      "stateMutability": "nonpayable",
      "type": "function"
    },
    {
      "inputs": [],
      "name": "owner",
      "outputs": [
        {
          "internalType": "address",
          "name": "",
          "type": "address"
        }
      ],
      "stateMutability": "view",
      "type": "function"
    },
    {
      "inputs": [],
      "name": "renounceOwnership",
      "outputs": [],
      "stateMutability": "nonpayable",
      "type": "function"
    },
    {
      "inputs": [
        {
          "internalType": "bytes4",
          "name": "interfaceId",
          "type": "bytes4"
        }
      ],
      "name": "supportsInterface",
      "outputs": [
        {
          "internalType": "bool",
          "name": "",
          "type": "bool"
        }
      ],
      "stateMutability": "view",
      "type": "function"
    },
    {
      "inputs": [
        {
          "internalType": "address",
          "name": "newOwner",
          "type": "address"
        }
      ],
      "name": "transferOwnership",
      "outputs": [],
      "stateMutability": "nonpayable",
      "type": "function"
    }
  ],
  "bytecode": "0x60806040526003805461ffff60a01b1916607d60a21b17905534801561002457600080fd5b50604051611838380380611838833981016040819052610043916100c1565b61004c33610071565b600380546001600160a01b0319166001600160a01b03929092169190911790556100f1565b600080546001600160a01b038381166001600160a01b0319831681178455604051919092169283917f8be0079c531659141344cd1fd0a4f28419497f9722a3daafe3b4186f6b6457e09190a35050565b6000602082840312156100d357600080fd5b81516001600160a01b03811681146100ea57600080fd5b9392505050565b611738806101006000396000f3fe6080604052600436106100f35760003560e01c8063a65662b31161008a578063ddca3f4311610059578063ddca3f431461036c578063de53fcd5146103a1578063f23a6e61146103c1578063f2fde38b146103ed57600080fd5b8063a65662b3146102c6578063b7747267146102f4578063bc197c8114610314578063d43028051461035957600080fd5b806326749ad7116100c657806326749ad71461022f5780633407facd1461025f578063715018a61461027f5780638da5cb5b1461029457600080fd5b806301ffc9a7146100f8578063135171be1461012d5780631e18cb891461014f5780631edbc5be1461016f575b600080fd5b34801561010457600080fd5b506101186101133660046111e3565b61040d565b60405190151581526020015b60405180910390f35b34801561013957600080fd5b5061014d610148366004611222565b610444565b005b34801561015b57600080fd5b5061014d61016a366004611222565b61049e565b34801561017b57600080fd5b506101e061018a36600461123f565b600260208190526000918252604090912080546001820154928201546003830154600484015460058501546006909501546001600160a01b0394851696959394928316936001600160801b039283169316911687565b604080516001600160a01b039889168152602081019790975286019490945291851660608501526001600160801b039081166080850152931660a08301529190911660c082015260e001610124565b34801561023b57600080fd5b5061011861024a366004611222565b60016020526000908152604090205460ff1681565b34801561026b57600080fd5b5061014d61027a366004611258565b6104ea565b34801561028b57600080fd5b5061014d61057f565b3480156102a057600080fd5b506000546001600160a01b03165b6040516001600160a01b039091168152602001610124565b3480156102d257600080fd5b506102e66102e136600461127c565b6105b5565b604051908152602001610124565b34801561030057600080fd5b5061014d61030f36600461123f565b6107da565b34801561032057600080fd5b5061034061032f366004611409565b63bc197c8160e01b95945050505050565b6040516001600160e01b03199091168152602001610124565b61014d61036736600461123f565b610de6565b34801561037857600080fd5b5060035461038e90600160a01b900461ffff1681565b60405161ffff9091168152602001610124565b3480156103ad57600080fd5b506003546102ae906001600160a01b031681565b3480156103cd57600080fd5b506103406103dc3660046114b7565b63f23a6e6160e01b95945050505050565b3480156103f957600080fd5b5061014d610408366004611222565b610fb9565b60006001600160e01b03198216630271189760e51b148061043e57506301ffc9a760e01b6001600160e01b03198316145b92915050565b6000546001600160a01b031633146104775760405162461bcd60e51b815260040161046e90611520565b60405180910390fd5b6001600160a01b03166000908152600160208190526040909120805460ff19169091179055565b6000546001600160a01b031633146104c85760405162461bcd60e51b815260040161046e90611520565b600380546001600160a01b0319166001600160a01b0392909216919091179055565b6000546001600160a01b031633146105145760405162461bcd60e51b815260040161046e90611520565b6102ee8161ffff16111561055d5760405162461bcd60e51b815260206004820152601060248201526f746f6f20626967206f6620612066656560801b604482015260640161046e565b6003805461ffff909216600160a01b0261ffff60a01b19909216919091179055565b6000546001600160a01b031633146105a95760405162461bcd60e51b815260040161046e90611520565b6105b36000611054565b565b6000333b15806105d457503360009081526001602052604090205460ff165b6105f05760405162461bcd60e51b815260040161046e90611555565b6040516bffffffffffffffffffffffff19606087811b82166020840152603483018790526054830186905232901b1660748201526001600160801b0319608084901b16608882015242609882015260009060b80160408051601f19818403018152908290528051602090910120637921219560e11b825291506001600160a01b0387169063f242432a9061068e90329030908a908a9060040161158c565b600060405180830381600087803b1580156106a857600080fd5b505af11580156106bc573d6000803e3d6000fd5b50506040805160e0810182526001600160a01b03808b16825260208083018b81528385018b8152326060860190815260006080870181815260a088018281526001600160801b038f811660c08b019081528e8552600298899052938b902099518a54908a166001600160a01b0319918216178b55965160018b0155945196890196909655915160038801805491881691861691909117905590516004870180549184166001600160801b03199283161790559351600587018054919096169316929092179093555160069093018054939092169216919091179055517f2a66b5a320edcb6b7fba849fd4173d545603571b82a650ae5ef95f12e0dada9e92506107c9915083815260200190565b60405180910390a195945050505050565b6000818152600260205260409020600601548190426001600160801b0390911610801561081d57506000818152600260205260409020546001600160a01b031615155b61085d5760405162461bcd60e51b8152602060048201526011602482015270185d58dd1a5bdb881b9bdd08195b991959607a1b604482015260640161046e565b333b158061087a57503360009081526001602052604090205460ff165b6108965760405162461bcd60e51b815260040161046e90611555565b6000600260008481526020019081526020016000206040518060e00160405290816000820160009054906101000a90046001600160a01b03166001600160a01b03166001600160a01b0316815260200160018201548152602001600282015481526020016003820160009054906101000a90046001600160a01b03166001600160a01b03166001600160a01b031681526020016004820160009054906101000a90046001600160801b03166001600160801b03166001600160801b031681526020016005820160009054906101000a90046001600160a01b03166001600160a01b03166001600160a01b031681526020016006820160009054906101000a90046001600160801b03166001600160801b03166001600160801b031681525050905060026000848152602001908152602001600020600080820160006101000a8154906001600160a01b030219169055600182016000905560028201600090556003820160006101000a8154906001600160a01b0302191690556004820160006101000a8154906001600160801b0302191690556005820160006101000a8154906001600160a01b0302191690556006820160006101000a8154906001600160801b030219169055505060008082600001516001600160a01b0316632a55205a846020015185608001516040518363ffffffff1660e01b8152600401610aae9291909182526001600160801b0316602082015260400190565b604080518083038186803b158015610ac557600080fd5b505afa158015610ad9573d6000803e3d6000fd5b505050506040513d601f19601f82011682018060405250810190610afd91906115c4565b90925090508015610b40576040516001600160a01b0383169082156108fc029083906000818181858888f19350505050158015610b3e573d6000803e3d6000fd5b505b8251610b5c906001600160a01b031663152a902d60e11b6110a4565b15610bfa5782516020840151608085015160405163152a902d60e11b815260048101929092526001600160801b031660248201526001600160a01b0390911690632a55205a90604401604080518083038186803b158015610bbc57600080fd5b505afa158015610bd0573d6000803e3d6000fd5b505050506040513d601f19601f82011682018060405250810190610bf491906115c4565b90925090505b600354600160a01b900461ffff1615610c7e5760035460808401516001600160a01b038216916108fc9161271091610c3e91600160a01b90910461ffff1690611608565b610c489190611637565b6001600160801b03169081150290604051600060405180830381858888f19350505050158015610c7c573d6000803e3d6000fd5b505b82606001516001600160a01b03166108fc82612710600360149054906101000a900461ffff16612710610cb1919061166b565b61ffff168760800151610cc49190611608565b610cce9190611637565b6001600160801b0316610ce1919061168e565b6040518115909202916000818181858888f19350505050158015610d09573d6000803e3d6000fd5b5060a08301516001600160a01b031615801590610d32575060a08301516001600160a01b03163b155b15610dac5782600001516001600160a01b031663f242432a308560a00151866020015187604001516040518563ffffffff1660e01b8152600401610d79949392919061158c565b600060405180830381600087803b158015610d9357600080fd5b505af1158015610da7573d6000803e3d6000fd5b505050505b6040518581527fdd636676cbde606c0bf9ba33bcb630724c73f8710733e9a20567a4caa991b0349060200160405180910390a15050505050565b6000818152600260205260409020600601548190426001600160801b039091161015610e445760405162461bcd60e51b815260206004820152600d60248201526c185d58dd1a5bdb88195b991959609a1b604482015260640161046e565b333b1580610e6157503360009081526001602052604090205460ff165b610e7d5760405162461bcd60e51b815260040161046e90611555565b600082815260026020526040902060048101546001600160801b03163411610ed55760405162461bcd60e51b815260206004820152600b60248201526a62696420746f6f206c6f7760a81b604482015260640161046e565b60058101546001600160a01b031615801590610efd575060058101546001600160a01b03163b155b15610f4e57600581015460048201546040516001600160a01b03909216916001600160801b0390911680156108fc02916000818181858888f19350505050158015610f4c573d6000803e3d6000fd5b505b600581018054336001600160a01b03199091161790556004810180546001600160801b031916346001600160801b03161790556040518381527fce3fcb8cb2d98bb5670375017977cabb3197f05cb7d1964f502e63a5a6b4457b9060200160405180910390a1505050565b6000546001600160a01b03163314610fe35760405162461bcd60e51b815260040161046e90611520565b6001600160a01b0381166110485760405162461bcd60e51b815260206004820152602660248201527f4f776e61626c653a206e6577206f776e657220697320746865207a65726f206160448201526564647265737360d01b606482015260840161046e565b61105181611054565b50565b600080546001600160a01b038381166001600160a01b0319831681178455604051919092169283917f8be0079c531659141344cd1fd0a4f28419497f9722a3daafe3b4186f6b6457e09190a35050565b60006110af836110c7565b80156110c057506110c083836110fa565b9392505050565b60006110da826301ffc9a760e01b6110fa565b801561043e57506110f3826001600160e01b03196110fa565b1592915050565b604080516001600160e01b0319831660248083019190915282518083039091018152604490910182526020810180516001600160e01b03166301ffc9a760e01b179052905160009190829081906001600160a01b03871690617530906111619086906116a5565b6000604051808303818686fa925050503d806000811461119d576040519150601f19603f3d011682016040523d82523d6000602084013e6111a2565b606091505b50915091506020815110156111bd576000935050505061043e565b8180156111d95750808060200190518101906111d991906116e0565b9695505050505050565b6000602082840312156111f557600080fd5b81356001600160e01b0319811681146110c057600080fd5b6001600160a01b038116811461105157600080fd5b60006020828403121561123457600080fd5b81356110c08161120d565b60006020828403121561125157600080fd5b5035919050565b60006020828403121561126a57600080fd5b813561ffff811681146110c057600080fd5b6000806000806080858703121561129257600080fd5b843561129d8161120d565b9350602085013592506040850135915060608501356001600160801b03811681146112c757600080fd5b939692955090935050565b634e487b7160e01b600052604160045260246000fd5b604051601f8201601f1916810167ffffffffffffffff81118282101715611311576113116112d2565b604052919050565b600082601f83011261132a57600080fd5b8135602067ffffffffffffffff821115611346576113466112d2565b8160051b6113558282016112e8565b928352848101820192828101908785111561136f57600080fd5b83870192505b8483101561138e57823582529183019190830190611375565b979650505050505050565b600082601f8301126113aa57600080fd5b813567ffffffffffffffff8111156113c4576113c46112d2565b6113d7601f8201601f19166020016112e8565b8181528460208386010111156113ec57600080fd5b816020850160208301376000918101602001919091529392505050565b600080600080600060a0868803121561142157600080fd5b853561142c8161120d565b9450602086013561143c8161120d565b9350604086013567ffffffffffffffff8082111561145957600080fd5b61146589838a01611319565b9450606088013591508082111561147b57600080fd5b61148789838a01611319565b9350608088013591508082111561149d57600080fd5b506114aa88828901611399565b9150509295509295909350565b600080600080600060a086880312156114cf57600080fd5b85356114da8161120d565b945060208601356114ea8161120d565b93506040860135925060608601359150608086013567ffffffffffffffff81111561151457600080fd5b6114aa88828901611399565b6020808252818101527f4f776e61626c653a2063616c6c6572206973206e6f7420746865206f776e6572604082015260600190565b6020808252601e908201527f6f6e6c79206e6f6e20636f6e747261637473206f7220617070726f7665640000604082015260600190565b6001600160a01b0394851681529290931660208301526040820152606081019190915260a06080820181905260009082015260c00190565b600080604083850312156115d757600080fd5b82516115e28161120d565b6020939093015192949293505050565b634e487b7160e01b600052601160045260246000fd5b60006001600160801b038083168185168183048111821515161561162e5761162e6115f2565b02949350505050565b60006001600160801b038084168061165f57634e487b7160e01b600052601260045260246000fd5b92169190910492915050565b600061ffff83811690831681811015611686576116866115f2565b039392505050565b6000828210156116a0576116a06115f2565b500390565b6000825160005b818110156116c657602081860181015185830152016116ac565b818111156116d5576000828501525b509190910192915050565b6000602082840312156116f257600080fd5b815180151581146110c057600080fdfea26469706673582212207e58acab0c7b8c7ceb5f7011f1fc9fdac3a187aac1ca83c8273776fd2741a34864736f6c63430008090033",
  "linkReferences": {},
  "deployedLinkReferences": {}
}