{
  "_format": "hh-sol-artifact-1",
  "contractName": "ERC1155OrderMarketplace",
  "sourceName": "contracts/ERC1155Marketplace/ERC1155OrderMarketplace.sol",
  "abi": [
    {
      "inputs": [
        {
          "internalType": "address payable",
          "name": "_feeDestination",
          "type": "address"
        }
      ],
      "stateMutability": "nonpayable",
      "type": "constructor"
    },
    {
      "anonymous": false,
      "inputs": [
        {
          "indexed": false,
          "internalType": "bytes32",
          "name": "id",
          "type": "bytes32"
        }
      ],
      "name": "OrderCompleted",
      "type": "event"
    },
    {
      "anonymous": false,
      "inputs": [
        {
          "indexed": false,
          "internalType": "bytes32",
          "name": "id",
          "type": "bytes32"
        }
      ],
      "name": "OrderCreated",
      "type": "event"
    },
    {
      "anonymous": false,
      "inputs": [
        {
          "indexed": false,
          "internalType": "bytes32",
          "name": "id",
          "type": "bytes32"
        }
      ],
      "name": "OrderRemoved",
      "type": "event"
    },
    {
      "anonymous": false,
      "inputs": [
        {
          "indexed": true,
          "internalType": "address",
          "name": "previousOwner",
          "type": "address"
        },
        {
          "indexed": true,
          "internalType": "address",
          "name": "newOwner",
          "type": "address"
        }
      ],
      "name": "OwnershipTransferred",
      "type": "event"
    },
    {
      "inputs": [
        {
          "internalType": "address",
          "name": "_contractAddress",
          "type": "address"
        }
      ],
      "name": "addApprovedContract",
      "outputs": [],
      "stateMutability": "nonpayable",
      "type": "function"
    },
    {
      "inputs": [
        {
          "internalType": "address",
          "name": "",
          "type": "address"
        }
      ],
      "name": "approvedContracts",
      "outputs": [
        {
          "internalType": "bool",
          "name": "",
          "type": "bool"
        }
      ],
      "stateMutability": "view",
      "type": "function"
    },
    {
      "inputs": [
        {
          "internalType": "bytes32",
          "name": "_id",
          "type": "bytes32"
        }
      ],
      "name": "buyOrder",
      "outputs": [],
      "stateMutability": "payable",
      "type": "function"
    },
    {
      "inputs": [
        {
          "internalType": "uint16",
          "name": "_fee",
          "type": "uint16"
        }
      ],
      "name": "changeFee",
      "outputs": [],
      "stateMutability": "nonpayable",
      "type": "function"
    },
    {
      "inputs": [
        {
          "internalType": "address payable",
          "name": "_feeDestination",
          "type": "address"
        }
      ],
      "name": "changeFeeDestination",
      "outputs": [],
      "stateMutability": "nonpayable",
      "type": "function"
    },
    {
      "inputs": [
        {
          "internalType": "address",
          "name": "_tokenAddress",
          "type": "address"
        },
        {
          "internalType": "uint256",
          "name": "_tokenId",
          "type": "uint256"
        },
        {
          "internalType": "uint256",
          "name": "_tokenQty",
          "type": "uint256"
        },
        {
          "internalType": "uint256",
          "name": "_price",
          "type": "uint256"
        }
      ],
      "name": "createOrder",
      "outputs": [
        {
          "internalType": "bytes32",
          "name": "",
          "type": "bytes32"
        }
      ],
      "stateMutability": "nonpayable",
      "type": "function"
    },
    {
      "inputs": [],
      "name": "fee",
      "outputs": [
        {
          "internalType": "uint16",
          "name": "",
          "type": "uint16"
        }
      ],
      "stateMutability": "view",
      "type": "function"
    },
    {
      "inputs": [],
      "name": "feeDestination",
      "outputs": [
        {
          "internalType": "address payable",
          "name": "",
          "type": "address"
        }
      ],
      "stateMutability": "view",
      "type": "function"
    },
    {
      "inputs": [
        {
          "internalType": "address",
          "name": "",
          "type": "address"
        },
        {
          "internalType": "address",
          "name": "",
          "type": "address"
        },
        {
          "internalType": "uint256[]",
          "name": "",
          "type": "uint256[]"
        },
        {
          "internalType": "uint256[]",
          "name": "",
          "type": "uint256[]"
        },
        {
          "internalType": "bytes",
          "name": "",
          "type": "bytes"
        }
      ],
      "name": "onERC1155BatchReceived",
      "outputs": [
        {
          "internalType": "bytes4",
          "name": "",
          "type": "bytes4"
        }
      ],
      "stateMutability": "nonpayable",
      "type": "function"
    },
    {
      "inputs": [
        {
          "internalType": "address",
          "name": "",
          "type": "address"
        },
        {
          "internalType": "address",
          "name": "",
          "type": "address"
        },
        {
          "internalType": "uint256",
          "name": "",
          "type": "uint256"
        },
        {
          "internalType": "uint256",
          "name": "",
          "type": "uint256"
        },
        {
          "internalType": "bytes",
          "name": "",
          "type": "bytes"
        }
      ],
      "name": "onERC1155Received",
      "outputs": [
        {
          "internalType": "bytes4",
          "name": "",
          "type": "bytes4"
        }
      ],
      "stateMutability": "nonpayable",
      "type": "function"
    },
    {
      "inputs": [
        {
          "internalType": "bytes32",
          "name": "",
          "type": "bytes32"
        }
      ],
      "name": "orders",
      "outputs": [
        {
          "internalType": "address",
          "name": "tokenAddress",
          "type": "address"
        },
        {
          "internalType": "uint256",
          "name": "tokenId",
          "type": "uint256"
        },
        {
          "internalType": "uint256",
          "name": "tokenQty",
          "type": "uint256"
        },
        {
          "internalType": "address",
          "name": "owner",
          "type": "address"
        },
        {
          "internalType": "uint256",
          "name": "price",
          "type": "uint256"
        }
      ],
      "stateMutability": "view",
      "type": "function"
    },
    {
      "inputs": [],
      "name": "owner",
      "outputs": [
        {
          "internalType": "address",
          "name": "",
          "type": "address"
        }
      ],
      "stateMutability": "view",
      "type": "function"
    },
    {
      "inputs": [
        {
          "internalType": "bytes32",
          "name": "_id",
          "type": "bytes32"
        }
      ],
      "name": "removeOrder",
      "outputs": [],
      "stateMutability": "nonpayable",
      "type": "function"
    },
    {
      "inputs": [],
      "name": "renounceOwnership",
      "outputs": [],
      "stateMutability": "nonpayable",
      "type": "function"
    },
    {
      "inputs": [
        {
          "internalType": "bytes4",
          "name": "interfaceId",
          "type": "bytes4"
        }
      ],
      "name": "supportsInterface",
      "outputs": [
        {
          "internalType": "bool",
          "name": "",
          "type": "bool"
        }
      ],
      "stateMutability": "view",
      "type": "function"
    },
    {
      "inputs": [
        {
          "internalType": "address",
          "name": "newOwner",
          "type": "address"
        }
      ],
      "name": "transferOwnership",
      "outputs": [],
      "stateMutability": "nonpayable",
      "type": "function"
    }
  ],
  "bytecode": "0x60806040526003805461ffff60a01b1916607d60a21b17905534801561002457600080fd5b50604051611464380380611464833981016040819052610043916100c1565b61004c33610071565b600380546001600160a01b0319166001600160a01b03929092169190911790556100f1565b600080546001600160a01b038381166001600160a01b0319831681178455604051919092169283917f8be0079c531659141344cd1fd0a4f28419497f9722a3daafe3b4186f6b6457e09190a35050565b6000602082840312156100d357600080fd5b81516001600160a01b03811681146100ea57600080fd5b9392505050565b611364806101006000396000f3fe6080604052600436106100f35760003560e01c80638eb6ac7a1161008a578063de53fcd511610059578063de53fcd514610350578063f23a6e6114610370578063f2fde38b1461039c578063fde99668146103bc57600080fd5b80638eb6ac7a146102345780639c3f1e9014610247578063bc197c81146102d6578063ddca3f431461031b57600080fd5b80633407facd116100c65780633407facd1461019f5780636f652e1a146101bf578063715018a6146101ed5780638da5cb5b1461020257600080fd5b806301ffc9a7146100f8578063135171be1461012d5780631e18cb891461014f57806326749ad71461016f575b600080fd5b34801561010457600080fd5b50610118610113366004610e83565b6103dc565b60405190151581526020015b60405180910390f35b34801561013957600080fd5b5061014d610148366004610ec2565b610413565b005b34801561015b57600080fd5b5061014d61016a366004610ec2565b61046d565b34801561017b57600080fd5b5061011861018a366004610ec2565b60016020526000908152604090205460ff1681565b3480156101ab57600080fd5b5061014d6101ba366004610edf565b6104b9565b3480156101cb57600080fd5b506101df6101da366004610f03565b61054e565b604051908152602001610124565b3480156101f957600080fd5b5061014d6106d0565b34801561020e57600080fd5b506000546001600160a01b03165b6040516001600160a01b039091168152602001610124565b61014d610242366004610f3e565b610706565b34801561025357600080fd5b5061029f610262366004610f3e565b6002602081905260009182526040909120805460018201549282015460038301546004909301546001600160a01b03928316949391929091169085565b604080516001600160a01b03968716815260208101959095528401929092529092166060820152608081019190915260a001610124565b3480156102e257600080fd5b506103026102f136600461108e565b63bc197c8160e01b95945050505050565b6040516001600160e01b03199091168152602001610124565b34801561032757600080fd5b5060035461033d90600160a01b900461ffff1681565b60405161ffff9091168152602001610124565b34801561035c57600080fd5b5060035461021c906001600160a01b031681565b34801561037c57600080fd5b5061030261038b36600461113c565b63f23a6e6160e01b95945050505050565b3480156103a857600080fd5b5061014d6103b7366004610ec2565b610a4d565b3480156103c857600080fd5b5061014d6103d7366004610f3e565b610ae8565b60006001600160e01b03198216630271189760e51b148061040d57506301ffc9a760e01b6001600160e01b03198316145b92915050565b6000546001600160a01b031633146104465760405162461bcd60e51b815260040161043d906111a5565b60405180910390fd5b6001600160a01b03166000908152600160208190526040909120805460ff19169091179055565b6000546001600160a01b031633146104975760405162461bcd60e51b815260040161043d906111a5565b600380546001600160a01b0319166001600160a01b0392909216919091179055565b6000546001600160a01b031633146104e35760405162461bcd60e51b815260040161043d906111a5565b6102ee8161ffff16111561052c5760405162461bcd60e51b815260206004820152601060248201526f746f6f20626967206f6620612066656560801b604482015260640161043d565b6003805461ffff909216600160a01b0261ffff60a01b19909216919091179055565b604051637921219560e11b81526000906001600160a01b0386169063f242432a906105839032903090899089906004016111da565b600060405180830381600087803b15801561059d57600080fd5b505af11580156105b1573d6000803e3d6000fd5b50506040516bffffffffffffffffffffffff19606089811b82166020840152603483018990526054830187905232901b1660748201524260888201526000925060a801905060408051601f19818403018152828252805160209182012060a0840183526001600160a01b03808b1685528483018a81528585018a81523260608801908152608088018b81526000868152600297889052889020985189549086166001600160a01b0319918216178a55935160018a015591519588019590955593516003870180549190931691161790559051600490930192909255519091507f918554b6bd6e2895ce6553de5de0e1a69db5289aa0e4fe193a0dcd1f14347477906106bf9083815260200190565b60405180910390a195945050505050565b6000546001600160a01b031633146106fa5760405162461bcd60e51b815260040161043d906111a5565b6107046000610cf4565b565b6000818152600260208181526040808420815160a08101835281546001600160a01b038082168352600184018054848801528488018054968501969096526003850180549283166060860152600486018054608087019081528c8c52999098526001600160a01b03199384169095558890559387905590921690559290555134146107c55760405162461bcd60e51b815260206004820152600f60248201526e696e636f727265637420707269636560881b604482015260640161043d565b805160208201516040808401519051637921219560e11b81526001600160a01b039093169263f242432a92610802923092339291906004016111da565b600060405180830381600087803b15801561081c57600080fd5b505af1158015610830573d6000803e3d6000fd5b5050825160009250829150610855906001600160a01b031663152a902d60e11b610d44565b156108e6578251602084015160405163152a902d60e11b815260048101919091523460248201526001600160a01b0390911690632a55205a90604401604080518083038186803b1580156108a857600080fd5b505afa1580156108bc573d6000803e3d6000fd5b505050506040513d601f19601f820116820180604052508101906108e09190611212565b90925090505b8015610924576040516001600160a01b0383169082156108fc029083906000818181858888f19350505050158015610922573d6000803e3d6000fd5b505b600354600160a01b900461ffff1615610996576003546001600160a01b038116906108fc906127109061096290600160a01b900461ffff1634611256565b61096c9190611275565b6040518115909202916000818181858888f19350505050158015610994573d6000803e3d6000fd5b505b82606001516001600160a01b03166108fc82612710600360149054906101000a900461ffff166127106109c99190611297565b6109d79061ffff1634611256565b6109e19190611275565b6109eb91906112ba565b6040518115909202916000818181858888f19350505050158015610a13573d6000803e3d6000fd5b506040518481527fc1471de81880c1b225e1d454a583a6f0fde1f88fb0f03ca678be2a3656c0f7c29060200160405180910390a150505050565b6000546001600160a01b03163314610a775760405162461bcd60e51b815260040161043d906111a5565b6001600160a01b038116610adc5760405162461bcd60e51b815260206004820152602660248201527f4f776e61626c653a206e6577206f776e657220697320746865207a65726f206160448201526564647265737360d01b606482015260840161043d565b610ae581610cf4565b50565b60008181526002602052604090206003015481906001600160a01b03163314610b465760405162461bcd60e51b815260206004820152601060248201526f37b7363c9037b93232b91037bbb732b960811b604482015260640161043d565b6000600260008481526020019081526020016000206040518060a00160405290816000820160009054906101000a90046001600160a01b03166001600160a01b03166001600160a01b0316815260200160018201548152602001600282015481526020016003820160009054906101000a90046001600160a01b03166001600160a01b03166001600160a01b03168152602001600482015481525050905060026000848152602001908152602001600020600080820160006101000a8154906001600160a01b030219169055600182016000905560028201600090556003820160006101000a8154906001600160a01b0302191690556004820160009055505080600001516001600160a01b031663f242432a3033846020015185604001516040518563ffffffff1660e01b8152600401610c8494939291906111da565b600060405180830381600087803b158015610c9e57600080fd5b505af1158015610cb2573d6000803e3d6000fd5b505050507fd6a6f4fff14bde90c8d0e8b21085c6daf570a5b95b30376360391fe7e3dd580283604051610ce791815260200190565b60405180910390a1505050565b600080546001600160a01b038381166001600160a01b0319831681178455604051919092169283917f8be0079c531659141344cd1fd0a4f28419497f9722a3daafe3b4186f6b6457e09190a35050565b6000610d4f83610d67565b8015610d605750610d608383610d9a565b9392505050565b6000610d7a826301ffc9a760e01b610d9a565b801561040d5750610d93826001600160e01b0319610d9a565b1592915050565b604080516001600160e01b0319831660248083019190915282518083039091018152604490910182526020810180516001600160e01b03166301ffc9a760e01b179052905160009190829081906001600160a01b0387169061753090610e019086906112d1565b6000604051808303818686fa925050503d8060008114610e3d576040519150601f19603f3d011682016040523d82523d6000602084013e610e42565b606091505b5091509150602081511015610e5d576000935050505061040d565b818015610e79575080806020019051810190610e79919061130c565b9695505050505050565b600060208284031215610e9557600080fd5b81356001600160e01b031981168114610d6057600080fd5b6001600160a01b0381168114610ae557600080fd5b600060208284031215610ed457600080fd5b8135610d6081610ead565b600060208284031215610ef157600080fd5b813561ffff81168114610d6057600080fd5b60008060008060808587031215610f1957600080fd5b8435610f2481610ead565b966020860135965060408601359560600135945092505050565b600060208284031215610f5057600080fd5b5035919050565b634e487b7160e01b600052604160045260246000fd5b604051601f8201601f1916810167ffffffffffffffff81118282101715610f9657610f96610f57565b604052919050565b600082601f830112610faf57600080fd5b8135602067ffffffffffffffff821115610fcb57610fcb610f57565b8160051b610fda828201610f6d565b9283528481018201928281019087851115610ff457600080fd5b83870192505b8483101561101357823582529183019190830190610ffa565b979650505050505050565b600082601f83011261102f57600080fd5b813567ffffffffffffffff81111561104957611049610f57565b61105c601f8201601f1916602001610f6d565b81815284602083860101111561107157600080fd5b816020850160208301376000918101602001919091529392505050565b600080600080600060a086880312156110a657600080fd5b85356110b181610ead565b945060208601356110c181610ead565b9350604086013567ffffffffffffffff808211156110de57600080fd5b6110ea89838a01610f9e565b9450606088013591508082111561110057600080fd5b61110c89838a01610f9e565b9350608088013591508082111561112257600080fd5b5061112f8882890161101e565b9150509295509295909350565b600080600080600060a0868803121561115457600080fd5b853561115f81610ead565b9450602086013561116f81610ead565b93506040860135925060608601359150608086013567ffffffffffffffff81111561119957600080fd5b61112f8882890161101e565b6020808252818101527f4f776e61626c653a2063616c6c6572206973206e6f7420746865206f776e6572604082015260600190565b6001600160a01b0394851681529290931660208301526040820152606081019190915260a06080820181905260009082015260c00190565b6000806040838503121561122557600080fd5b825161123081610ead565b6020939093015192949293505050565b634e487b7160e01b600052601160045260246000fd5b600081600019048311821515161561127057611270611240565b500290565b60008261129257634e487b7160e01b600052601260045260246000fd5b500490565b600061ffff838116908316818110156112b2576112b2611240565b039392505050565b6000828210156112cc576112cc611240565b500390565b6000825160005b818110156112f257602081860181015185830152016112d8565b81811115611301576000828501525b509190910192915050565b60006020828403121561131e57600080fd5b81518015158114610d6057600080fdfea2646970667358221220ee28bd5bfbc774c537ab9ae2d2094809f68e0d569fb8c8bb367230492a5dc96964736f6c63430008090033",
  "linkReferences": {},
  "deployedLinkReferences": {}
}